{
  "contractName": "DigitalIdentityVerification",
  "abi": [
    {
      "anonymous": false,
      "inputs": [
        {
          "indexed": true,
          "internalType": "address",
          "name": "user",
          "type": "address"
        },
        {
          "indexed": false,
          "internalType": "string",
          "name": "firstName",
          "type": "string"
        },
        {
          "indexed": false,
          "internalType": "string",
          "name": "lastName",
          "type": "string"
        },
        {
          "indexed": false,
          "internalType": "uint256",
          "name": "governmentID",
          "type": "uint256"
        }
      ],
      "name": "IdentityVerified",
      "type": "event"
    },
    {
      "inputs": [
        {
          "internalType": "address",
          "name": "",
          "type": "address"
        }
      ],
      "name": "identity",
      "outputs": [
        {
          "internalType": "string",
          "name": "firstName",
          "type": "string"
        },
        {
          "internalType": "string",
          "name": "lastName",
          "type": "string"
        },
        {
          "internalType": "uint256",
          "name": "governmentID",
          "type": "uint256"
        },
        {
          "internalType": "bool",
          "name": "verified",
          "type": "bool"
        }
      ],
      "stateMutability": "view",
      "type": "function",
      "constant": true
    },
    {
      "inputs": [],
      "name": "getIdentity",
      "outputs": [
        {
          "internalType": "string",
          "name": "",
          "type": "string"
        },
        {
          "internalType": "string",
          "name": "",
          "type": "string"
        },
        {
          "internalType": "uint256",
          "name": "",
          "type": "uint256"
        },
        {
          "internalType": "bool",
          "name": "",
          "type": "bool"
        }
      ],
      "stateMutability": "view",
      "type": "function",
      "constant": true
    },
    {
      "inputs": [
        {
          "internalType": "string",
          "name": "_firstName",
          "type": "string"
        },
        {
          "internalType": "string",
          "name": "_lastName",
          "type": "string"
        },
        {
          "internalType": "uint256",
          "name": "_governmentID",
          "type": "uint256"
        }
      ],
      "name": "verifyIdentity",
      "outputs": [],
      "stateMutability": "nonpayable",
      "type": "function"
    }
  ],
  "bytecode": "0x608060405234801561001057600080fd5b50610cd0806100206000396000f3fe608060405234801561001057600080fd5b50600436106100415760003560e01c806319ec62851461004657806336afc6fa14610062578063f0eb5e5414610083575b600080fd5b610060600480360381019061005b91906106f9565b6100b6565b005b61006a61025d565b60405161007a949392919061082d565b60405180910390f35b61009d600480360381019061009891906108de565b61041c565b6040516100ad949392919061082d565b60405180910390f35b600015156000803373ffffffffffffffffffffffffffffffffffffffff1673ffffffffffffffffffffffffffffffffffffffff16815260200190815260200160002060030160009054906101000a900460ff1615151461014b576040517f08c379a000000000000000000000000000000000000000000000000000000000815260040161014290610957565b60405180910390fd5b6040518060800160405280848152602001838152602001828152602001600115158152506000803373ffffffffffffffffffffffffffffffffffffffff1673ffffffffffffffffffffffffffffffffffffffff16815260200190815260200160002060008201518160000190816101c29190610b83565b5060208201518160010190816101d89190610b83565b506040820151816002015560608201518160030160006101000a81548160ff0219169083151502179055509050503373ffffffffffffffffffffffffffffffffffffffff167fc1ed9f712a30dcc8b67d1ef4ca92963276a682e41cc6dc2c00ae3c3380f0d3b384848460405161025093929190610c55565b60405180910390a2505050565b60608060008060008060003373ffffffffffffffffffffffffffffffffffffffff1673ffffffffffffffffffffffffffffffffffffffff1681526020019081526020016000206040518060800160405290816000820180546102be906109a6565b80601f01602080910402602001604051908101604052809291908181526020018280546102ea906109a6565b80156103375780601f1061030c57610100808354040283529160200191610337565b820191906000526020600020905b81548152906001019060200180831161031a57829003601f168201915b50505050508152602001600182018054610350906109a6565b80601f016020809104026020016040519081016040528092919081815260200182805461037c906109a6565b80156103c95780601f1061039e576101008083540402835291602001916103c9565b820191906000526020600020905b8154815290600101906020018083116103ac57829003601f168201915b50505050508152602001600282015481526020016003820160009054906101000a900460ff1615151515815250509050806000015181602001518260400151836060015194509450945094505090919293565b600060205280600052604060002060009150905080600001805461043f906109a6565b80601f016020809104026020016040519081016040528092919081815260200182805461046b906109a6565b80156104b85780601f1061048d576101008083540402835291602001916104b8565b820191906000526020600020905b81548152906001019060200180831161049b57829003601f168201915b5050505050908060010180546104cd906109a6565b80601f01602080910402602001604051908101604052809291908181526020018280546104f9906109a6565b80156105465780601f1061051b57610100808354040283529160200191610546565b820191906000526020600020905b81548152906001019060200180831161052957829003601f168201915b5050505050908060020154908060030160009054906101000a900460ff16905084565b6000604051905090565b600080fd5b600080fd5b600080fd5b600080fd5b6000601f19601f8301169050919050565b7f4e487b7100000000000000000000000000000000000000000000000000000000600052604160045260246000fd5b6105d082610587565b810181811067ffffffffffffffff821117156105ef576105ee610598565b5b80604052505050565b6000610602610569565b905061060e82826105c7565b919050565b600067ffffffffffffffff82111561062e5761062d610598565b5b61063782610587565b9050602081019050919050565b82818337600083830152505050565b600061066661066184610613565b6105f8565b90508281526020810184848401111561068257610681610582565b5b61068d848285610644565b509392505050565b600082601f8301126106aa576106a961057d565b5b81356106ba848260208601610653565b91505092915050565b6000819050919050565b6106d6816106c3565b81146106e157600080fd5b50565b6000813590506106f3816106cd565b92915050565b60008060006060848603121561071257610711610573565b5b600084013567ffffffffffffffff8111156107305761072f610578565b5b61073c86828701610695565b935050602084013567ffffffffffffffff81111561075d5761075c610578565b5b61076986828701610695565b925050604061077a868287016106e4565b9150509250925092565b600081519050919050565b600082825260208201905092915050565b60005b838110156107be5780820151818401526020810190506107a3565b60008484015250505050565b60006107d582610784565b6107df818561078f565b93506107ef8185602086016107a0565b6107f881610587565b840191505092915050565b61080c816106c3565b82525050565b60008115159050919050565b61082781610812565b82525050565b6000608082019050818103600083015261084781876107ca565b9050818103602083015261085b81866107ca565b905061086a6040830185610803565b610877606083018461081e565b95945050505050565b600073ffffffffffffffffffffffffffffffffffffffff82169050919050565b60006108ab82610880565b9050919050565b6108bb816108a0565b81146108c657600080fd5b50565b6000813590506108d8816108b2565b92915050565b6000602082840312156108f4576108f3610573565b5b6000610902848285016108c9565b91505092915050565b7f4964656e7469747920616c72656164792076657269666965642e000000000000600082015250565b6000610941601a8361078f565b915061094c8261090b565b602082019050919050565b6000602082019050818103600083015261097081610934565b9050919050565b7f4e487b7100000000000000000000000000000000000000000000000000000000600052602260045260246000fd5b600060028204905060018216806109be57607f821691505b6020821081036109d1576109d0610977565b5b50919050565b60008190508160005260206000209050919050565b60006020601f8301049050919050565b600082821b905092915050565b600060088302610a397fffffffffffffffffffffffffffffffffffffffffffffffffffffffffffffffff826109fc565b610a4386836109fc565b95508019841693508086168417925050509392505050565b6000819050919050565b6000610a80610a7b610a76846106c3565b610a5b565b6106c3565b9050919050565b6000819050919050565b610a9a83610a65565b610aae610aa682610a87565b848454610a09565b825550505050565b600090565b610ac3610ab6565b610ace818484610a91565b505050565b5b81811015610af257610ae7600082610abb565b600181019050610ad4565b5050565b601f821115610b3757610b08816109d7565b610b11846109ec565b81016020851015610b20578190505b610b34610b2c856109ec565b830182610ad3565b50505b505050565b600082821c905092915050565b6000610b5a60001984600802610b3c565b1980831691505092915050565b6000610b738383610b49565b9150826002028217905092915050565b610b8c82610784565b67ffffffffffffffff811115610ba557610ba4610598565b5b610baf82546109a6565b610bba828285610af6565b600060209050601f831160018114610bed5760008415610bdb578287015190505b610be58582610b67565b865550610c4d565b601f198416610bfb866109d7565b60005b82811015610c2357848901518255600182019150602085019450602081019050610bfe565b86831015610c405784890151610c3c601f891682610b49565b8355505b6001600288020188555050505b505050505050565b60006060820190508181036000830152610c6f81866107ca565b90508181036020830152610c8381856107ca565b9050610c926040830184610803565b94935050505056fea264697066735822122096f8309121997dd3f7b0ba7573c2c07aa9312c0bf0ba5f4cd1315811e08c4df964736f6c63430008130033",
  "immutableReferences": {},
  "source": "// SPDX-License-Identifier: MIT\npragma solidity ^0.8.19;\n\ncontract DigitalIdentityVerification {\n\n    struct Identity {\n        string firstName;\n        string lastName;\n        uint256 governmentID;\n        bool verified;\n    }\n\n    mapping(address => Identity) public identity;\n\n    event IdentityVerified(address indexed user, string firstName, string lastName, uint256 governmentID);\n\n    function getIdentity() public view returns (string memory, string memory, uint256, bool) {\n        Identity memory user = identity[msg.sender];\n        return (user.firstName, user.lastName, user.governmentID, user.verified);\n    }\n\n    function verifyIdentity(string memory _firstName, string memory _lastName, uint256 _governmentID) public {\n        require(identity[msg.sender].verified == false, \"Identity already verified.\");\n        identity[msg.sender] = Identity(_firstName, _lastName, _governmentID, true);\n        emit IdentityVerified(msg.sender, _firstName, _lastName, _governmentID);\n    }\n}",
  "sourcePath": "/media/uzair/New Volume/ChainLInk Hackathon/Digital Identiy/contracts/digitalIdentity.sol",
  "compiler": {
    "name": "solc",
    "version": "0.8.19+commit.7dd6d404.Emscripten.clang"
  },
  "schemaVersion": "3.4.13",
  "updatedAt": "2023-05-04T08:42:52.176Z",
  "networkType": "ethereum",
  "devdoc": {
    "kind": "dev",
    "methods": {},
    "version": 1
  },
  "userdoc": {
    "kind": "user",
    "methods": {},
    "version": 1
  }
}